:060000000A128A11122809
:10000800FE00030E83120313A8000408A9000A08BF
:10001800AA007F08AB000A168A11222E0A128A113A
:10002800152883136230FD001030FE00A830FF0051
:100038005B3084000A128A11F1270A128A110A1207
:100048008A11FE270A128A11FD00A0308400D830D8
:100058000A168A11AF200A128A11513084005B30C7
:100068000A168A11AF2083010A128A150128831201
:1000780003135C03031DB42B5408031DB42B083071
:10008800831203135E0203189E2880305F0603194B
:1000980087287D0883160313E2006208831203137E
:1000A800B5005D080A168A119A220A128A1183126B
:1000B8000313AC015E080A168A1146210A128A1136
:1000C800831203135F0883160313E2006207E30039
:1000D800630883120313DF00013083160313E20061
:1000E800620883120313DE075F0883160313E20016
:1000F800620883120313AC005E080A168A114621AF
:100108000A128A113229043083160313E2006208A6
:1001180083120313DC007D0883160313E2006208D0
:1001280083120313B5005D080A168A119A220A126F
:100138008A113B280830831203135E06031DE42846
:1001480080305F060319CD28AC015E080A168A11B3
:1001580046210A128A11831203135F0883160313B8
:10016800E2006207E300630883120313DF00013033
:1001780083160313E200620883120313DE075F0885
:1001880083160313E200620883120313AC000130E4
:100198002D29043083160313E20062088312031327
:1001A800DC007D0883160313E20062088312031340
:1001B800B5005D080A168A119A220A128A113B288C
:1001C8001030831203135E0603198A2980305F06F4
:1001D800031973297D0883160313E200620883124A
:1001E8000313B5005D080A168A119A220A128A11A9
:1001F80083120313AC0108300A168A1146210A1229
:100208008A1183120313AC015E08F83E0A168A119C
:1002180067210A128A11831203135F0883160313D6
:10022800E2006207E300630883120313DF00013072
:1002380083160313E200620883120313DE075F08C4
:1002480083160313E200620883120313AC005E08EE
:10025800F83E0A168A1167210A128A1183120313BB
:100268005B080A168A1128210A128A1183120313BD
:100278003408BF003508C0003608C1004030BC0053
:100288009C30BD004530BE000A168A114F250A125F
:100298008A11831203133C08CC003D08CD003E08A8
:1002A800CE000A168A1186240A128A1183120313B1
:1002B8004C0883160313E200831203134D088316B8
:1002C8000313E300831203134E0883160313E40099
:1002D800831203134F0883160313E5003B280430E9
:1002E80083160313E200620883120313DC007D08FF
:1002F80083160313E200620883120313B5005D0836
:100308000A168A119A220A128A113B2883120313A9
:100318005F087D060319A7297D0883160313E200E9
:10032800E3010310E20DE30D831203135F08831644
:100338000313E400E50163086506031DA5296208A7
:100348006406031DBE29023083160313E200620807
:1003580083120313DC007D0883160313E20062088E
:1003680083120313B5005D080A168A119A220A122D
:100378008A113B28023083120313AC000030AD0011
:100388007D0883160313E200E30162088312031356
:10039800AE0083160313630883120313AF000A1613
:1003A8008A11E1210A128A11831203135F08831646
:1003B8000313E400E501831203132D0883160313C6
:1003C8006506031DED29831203132C0883160313F6
:1003D8006406031D042A0330E20062088312031333
:1003E800DC007D0883160313E200620883120313FE
:1003F800B5005D080A168A119A220A128A113B284A
:1004080083120313D701D70AD401D40A0130831603
:100418000313E200620883120313D6070A168A112F
:100428000D270A128A110A128A15BF230A128A1185
:100438003B2809305E020318D22A5E030319652A95
:1004480080305F0603199E2B7D0883160313E20094
:10045800620883120313B5005D080A168A119A22EE
:100468000A128A1183120313AC0101300A168A1189
:1004780067210A128A1183120313AC015E080A1657
:100488008A1146210A128A11831203135F08831600
:100498000313E2006207E300630883120313DF001B
:1004A8000130DE025F0883160313E200620883123C
:1004B8000313AC005E080A168A1146210A128A1133
:1004C8005D2B831203135F085D060319822A5D08FA
:1004D80083160313E200E3010310E20DE30D831218
:1004E80003135F0883160313E400E5016308650638
:1004F800031D802A62086406031D862A8312DC0114
:10050800DC0AA62B023083120313AC000030AD00C6
:100518005D0883160313E200E301620883120313E4
:10052800AE0083160313630883120313AF000A1681
:100538008A11E1210A128A11831203135F088316B4
:100548000313E400E501831203132D088316031334
:100558006506031DB52A831203132C08831603139B
:100568006406031DB92A0430A12B83120313E0018A
:10057800E00AD401D40A013083160313E2006208AA
:1005880083120313D5070A168A110D270A128A1136
:100598000A128A15BF230A128A11B42B0930831252
:1005A80003135E06031D192B80305F0603199E2B6B
:1005B8007D0883160313E200620883120313B50053
:1005C8005D080A168A119A220A128A1183120313E5
:1005D800AC0101300A168A1167210A128A118312A6
:1005E8000313AC015E080A168A1146210A128A1101
:1005F800831203135F0883160313E2006207E30004
:10060800630883120313DF000130DE025F088316DC
:100618000313E200620883120313AC0008300A16C1
:100628008A1146210A128A115D2B80308312031326
:100638005F0603199E2B7D0883160313E2006208E8
:1006480083120313B5005D080A168A119A220A124A
:100658008A1183120313AC0107300A168A11672125
:100668000A128A1183120313AC015E08F83E0A16B7
:100678008A1167210A128A11831203135F088316ED
:100688000313E2006207E300630883120313DF0029
:100698000130DE025F0883160313E200620883124A
:1006A8000313AC005E08F83E0A168A1167210A1285
:1006B8008A11831203135B080A168A1128210A1269
:1006C8008A11831203133408BF003508C0003608A6
:1006D800C1004030BC009C30BD004530BE000A1649
:1006E8008A114F250A128A11831203133C08CC0081
:1006F8003D08CD003E08CE000A168A1186240A124B
:100708008A11831203134C0883160313E200831221
:1007180003134D0883160313E300831203134E08D3
:1007280083160313E400831203134F08831603137D
:10073800E500B42B033083160313E200620883122A
:100748000313DC007D0883160313E200620883129A
:100758000313B5005D080A168A119A220A128A1133
:100768000230831203135C06031D922D5408031DE7
:10077800922D1D2A09305E0203188B2C5E03031983
:100788001D2C5F0303197C2D7D0883160313E200DB
:10079800620883120313B5005D080A168A119A22AB
:1007A8000A128A1183120313AC0101300A168A1146
:1007B80067210A128A1183120313AC015E080A1614
:1007C8008A1146210A128A11023083120313AC00DF
:1007D8000030AD005F0883160313E200E3016208EE
:1007E80083120313AE0083160313630883120313E3
:1007F800AF000A168A11E1210A128A118312031323
:100808002C0883160313E400640883120313DF0023
:100818000130DE025F0883160313E20062088312C8
:100828000313AC005E080A168A1146210A128A11BF
:100838003B2D831203135F085D060319522C023007
:10084800AC000030AD005D0883160313E200E3013D
:10085800620883120313AE0083160313630883121E
:100868000313AF000A168A11E1210A128A118312B2
:1008780003135F0883160313E400E50183120313CF
:100888002D08831603136506031D502C83120313CA
:100898002C08831603136406031D542C04307D2D85
:1008A800831203135D0883160313E200E3010310A8
:1008B800E20DE30D831203135F0883160313E400AC
:1008C800E50163086506031D6B2C62086406031DB9
:1008D800722C83120313DC01DC0A842D83120313A8
:1008E800E001E00AD401D40A013083160313E200C0
:1008F800620883120313D5070A168A110D270A12F4
:100908008A110A128A15BF230A128A11922D0930F8
:10091800831203135E06031DE92C5F0303197C2D64
:100928007D0883160313E200620883120313B500DF
:100938005D080A168A119A220A128A118312031371
:10094800AC0101300A168A1167210A128A11831232
:100958000313AC015E080A168A1146210A128A118D
:10096800023083120313AC000030AD005F08831619
:100978000313E200E301620883120313AE00831637
:100988000313630883120313AF000A168A11E121C7
:100998000A128A11831203132C0883160313E40026
:1009A800640883120313DF000130DE025F08831638
:1009B8000313E200620883120313AC0008300A161E
:1009C8008A1146210A128A113B2D831203135F03F1
:1009D80003197C2D7D0883160313E2006208831235
:1009E8000313B5005D080A168A119A220A128A11A1
:1009F80083120313AC015E08F83E0A168A116721B8
:100A08000A128A11023083120313AC000030AD00C1
:100A18005F0883160313E200E301620883120313DD
:100A2800AE0083160313630883120313AF000A167C
:100A38008A11E1210A128A11831203132C088316E2
:100A48000313E400640883120313DF000130DE029D
:100A58005F0883160313E200620883120313AC00D5
:100A68005E08F83E0A168A1167210A128A11831253
:100A780003135B080A168A1128210A128A118312A5
:100A880003133408BF003508C0003608C1004030E1
:100A9800BC009C30BD004530BE000A168A114F25A7
:100AA8000A128A11831203133C08CC003D08CD00BA
:100AB8003E08CE000A168A1186240A128A11831269
:100AC80003134C0883160313E200831203134D0823
:100AD80083160313E300831203134E0883160313CC
:100AE800E400831203134F0883160313E500922DC5
:100AF800023083160313E200620883120313DC003A
:100B08007D0883160313E200620883120313B500FD
:100B18005D080A168A119A220A128A110330831272
:100B280003135C06031DB62F5408031DB62FBE2BF6
:100B380008305E020318062E5F030319F52D7D08A1
:100B480083160313E200620883120313B5005D08DD
:100B58000A168A119A220A128A1183120313AC0107
:100B68005E080A168A1146210A128A110230831277
:100B78000313AC000030AD005F0883160313E200D6
:100B8800E301620883120313AE008316031363089C
:100B980083120313AF000A168A11E1210A128A117F
:100BA800831203132C0883160313E40064088312CA
:100BB8000313DF00013083160313E2006208831277
:100BC8000313DE075F0883160313E200620883122B
:100BD8000313AC005E080A168A1146210A128A110C
:100BE800D22EDC01DC0A7D0883160313E2006208BA
:100BF80083120313B5005D080A168A119A220A1295
:100C08008A11B62F0830831203135E06031D6D2E5A
:100C18005F0303195C2E7D0883160313E200620844
:100C280083120313B5005D080A168A119A220A1264
:100C38008A1183120313AC015E080A168A11462131
:100C48000A128A11023083120313AC000030AD007F
:100C58005F0883160313E200E3016208831203139B
:100C6800AE0083160313630883120313AF000A163A
:100C78008A11E1210A128A11831203132C088316A0
:100C88000313E400640883120313DF0001308316A2
:100C98000313E200620883120313DE075F0883165A
:100CA8000313E200620883120313AC000130CD2E57
:100CB800DC01DC0A7D0883160313E2006208831254
:100CC8000313B5005D080A168A119A220A128A11BE
:100CD800B62F1030831203135E060319242F5F0307
:100CE8000319132F7D0883160313E2006208831289
:100CF8000313B5005D080A168A119A220A128A118E
:100D080083120313AC0108300A168A1146210A120D
:100D18008A1183120313AC015E08F83E0A168A1181
:100D280067210A128A11023083120313AC000030C3
:100D3800AD005F0883160313E200E3016208831223
:100D48000313AE0083160313630883120313AF0063
:100D58000A168A11E1210A128A11831203132C0838
:100D680083160313E400640883120313DF000130C1
:100D780083160313E200620883120313DE075F0879
:100D880083160313E200620883120313AC005E08A3
:100D9800F83E0A168A1167210A128A118312031370
:100DA8005B080A168A1128210A128A118312031372
:100DB8003408BF003508C0003608C1004030BC0008
:100DC8009C30BD004530BE000A168A114F250A1214
:100DD8008A11831203133C08CC003D08CD003E085D
:100DE800CE000A168A1186240A128A118312031366
:100DF8004C0883160313E200831203134D0883166D
:100E08000313E300831203134E0883160313E4004D
:100E1800831203134F0883160313E500B62FDC0172
:100E2800DC0A7D0883160313E200620883120313A9
:100E3800B5005D080A168A119A220A128A11B62F7D
:100E4800831203135F087D060319412F7D0883165B
:100E58000313E200E3010310E20DE30D8312031311
:100E68005F0883160313E400E50163086506031DA4
:100E78003F2F62086406031D582F023083160313A0
:100E8800E200620883120313DC007D088316031353
:100E9800E200620883120313B5005D080A168A117E
:100EA8009A220A128A11B62F023083120313AC0059
:100EB8000030AD007D0883160313E200E3016208E9
:100EC80083120313AE0083160313630883120313FC
:100ED800AF000A168A11E1210A128A11831203133C
:100EE8005F0883160313E400E501831203132D083A
:100EF800831603136506031D872F831203132C081B
:100F0800831603136406031D9E2F0330E200620854
:100F180083120313DC007D0883160313E2006208C2
:100F280083120313B5005D080A168A119A220A1261
:100F38008A11B62F83120313D701D70AD401D40A12
:100F4800013083160313E200620883120313D607E5
:100F58000A168A110D270A128A110A128A15BF2346
:100F68000A128A110430831203135C060319540809
:100F780003199C2D5403031D0800D4010A168A1175
:100F8800F02383120313D801D80A0800831203132D
:100F9800AF00071087132F08930083160313141C40
:100FA800D12F831203132C08930083160313141CE8
:100FB800D92F073083120313AE007C30AD00AD0B80
:100FC800E32FAE0BE32F00008312031307148717D8
:100FD80008007E088A007F088200ED270A128A111D
:100FE8008000840A04087D0603190034FF0A0319E7
:060FF800FE0AF12F08348F
:101002000A168A11B7200A128A150A128A157E2236
:101012000A128A150A168A1166230A128A157D088F
:1010220083120313D0005008B5005D080A168A1116
:101032009A220A128A15831203135F08D0005008FD
:10104200AC005E080A168A1146210A128A150A168F
:101052008A11D1200A128A158B110A128A153E2191
:101062000A128A158312031306193928861E492883
:10107200E001D7015808031D48288B150A128A116E
:101082003B200A128A1583120313E1013B28D8017F
:10109200053056060319512805305506031D5528FB
:1010A2004630D0005008DB000A30560603195D288E
:1010B2000A305506031D2D288B11AC0101300A128E
:1010C2008A11CA270A128A1583120313AC0102304D
:1010D2000A128A11CA270A128A1583120313AC0153
:1010E20003300A128A11CA270A128A1583120313BD
:1010F200AC0104300A128A11CA270A128A15831215
:101102000313AC0105300A128A11CA270A128A1582
:1011120083120313AC0106300A128A11CA270A127B
:101122008A1583120313AC0107300A128A11CA27E7
:101132000A128A1583120313AC0108300A128A11AB
:10114200CA270A128A157E3083120313D000500870
:10115200AC0007300A168A1167210A128A1502307A
:1011620083120313D0005008AC0006300A168A110D
:1011720067210A128A150E3083120313D000500819
:10118200AC0005300A168A1167210A128A1502304C
:1011920083120313D0005008AC0004300A168A11DF
:1011A20067210A128A157E3083120313D000500879
:1011B200AC0003300A168A1167210A128A157E30A2
:1011C20083120313D0005008AC0001300A168A11B2
:1011D20067210A128A1583120313AC0108300A161A
:1011E2008A1146210A128A157E3083120313D00017
:1011F2005008AC0007300A168A1146210A128A15D5
:10120200203083120313D0005008AC0006300A16B7
:101212008A1146210A128A15103083120313D00054
:101222005008AC0005300A168A1146210A128A15A6
:10123200083083120313D0005008AC0004300A16A1
:101242008A1146210A128A15043083120313D00030
:101252005008AC0003300A168A1146210A128A1578
:101262007E3083120313D0005008AC0002300A16FD
:101272008A1146210A128A153D298B118312031302
:101282006003031D6103031DE029061F8A298230C2
:1012920083120313BF00DD30BE00BE0B4E29BF0B0D
:1012A2004E2983120313061F8A29061B56298230F0
:1012B20083120313BF00DD30BE00BE0B5E29BF0BDD
:1012C2005E2983120313061B8A2940305D06031927
:1012D2008A295D08BE003E07BF003F08DD007D0889
:1012E200BE003E08B5005D080A168A119A220A124B
:1012F2008A15831203135D08BE003E08DF005F08F3
:10130200BE003E08AC005E080A168A1146210A1287
:101312008A1583120313861FE02982308312031376
:10132200BF00DD30BE00BE0B9429BF0B942983128F
:101332000313861FE029861B9C2982308312031324
:10134200BF00DD30BE00BE0BA429BF0BA42983124F
:101352000313861BE02902305D060319E0290230DF
:10136200AC000030AD005D08BE00BF013E08AE001B
:101372003F08AF000A168A11E1210A128A15831268
:1013820003132C08C0004008DD007D08BE003E08A3
:10139200B5005D080A168A119A220A128A1583126A
:1013A20003135D08BE003E08DF005F08BE003E0872
:1013B200AC005E080A168A1146210A128A158312A7
:1013C20003135703031D0800061C292A82308312C7
:1013D2000313BF00DD30BE00BE0BED29BF0BED29AC
:1013E20083120313061C292A0618F5298230831258
:1013F2000313BF00DD30BE00BE0BFD29BF0BFD296C
:10140200831203130618292A40307D060319292A5C
:101412007D08BE003E07BF003F08FD007D08BE00FC
:101422003E08B5005D080A168A119A220A128A1528
:101432007D0883120313BE003E08DF007D08BE0054
:101442003E08AC0007300A168A1167210A128A1573
:1014520083120313861C0800823083120313BF0019
:10146200DD30BE00BE0B332ABF0B332A83120313B7
:10147200861C080086183B2A823083120313BF00A1
:10148200DD30BE00BE0B432ABF0B432A8312031377
:101492008618080002307D06031908000230AC00ED
:1014A2000030AD007D08BE00BF013E08AE003F081F
:1014B200AF000A168A11E1210A128A158312031358
:1014C2002C08C0004008FD007D08BE003E08B500A3
:1014D2005D080A168A119A220A128A157D08831259
:1014E2000313BE003E08DF007D08BE003E08AC00CC
:1014F20007300A168A1167210800C33083120313CA
:10150200AD00CC30AC00AC0B842AAD0B842A0000B9
:10151200831203130613861206108610061586150B
:101522000616213083120313AD007530AC00AC0BEC
:10153200982AAD0B982A9D2A831203130612213092
:1015420083120313AD007530AC00AC0BA62AAD0BB1
:10155200A62AAB2A831203130613861206108610DC
:10156200061586150616213083120313AD00753059
:10157200AC00AC0BBA2AAD0BBA2ABF2A83120313F2
:101582000612213083120313AD007530AC00AC0B90
:10159200C82AAD0BC82ACD2A83120313061386125A
:1015A20006108610061586110616213083120313C3
:1015B200AD007530AC00AC0BDC2AAD0BDC2AE12AA5
:1015C200831203130612213083120313AD00753008
:1015D200AC00AC0BEA2AAD0BEA2AEF2A8312031302
:1015E200061386120610861006158611061621307D
:1015F20083120313AD007530AC00AC0BFE2AAD0BA9
:10160200FE2A032B831203130612061386120614F4
:1016120086140616213083120313AD007530AC0018
:10162200AC0B112BAD0B112B162B831203130612CD
:10163200213083120313AD007530AC00AC0B1F2BAD
:10164200AD0B1F2B242B83120313061386120610D5
:101652008610061186110616213083120313AD007F
:101662007530AC00AC0B332BAD0B332B382B831204
:10167200031306120613861206148610061186112B
:101682000616213083120313AD007530AC00AC0B8B
:10169200482BAD0B482B4D2B83120313061221301E
:1016A20083120313AD007530AC00AC0B562BAD0B9F
:1016B200562B5B2B83120313061386120610861019
:1016C200061186110616213083120313AD00753000
:1016D200AC00AC0B6A2BAD0B6A2B6F2B831203137E
:1016E20006120613861206108610061186150616B5
:1016F200213083120313AD007530AC00AC0B7F2B8D
:10170200AD0B7F2B842B831203130612213083121D
:101712000313AD007530AC00AC0B8D2BAD0B8D2BD4
:10172200922B8312031306138612061086100611DB
:1017320086110616213083120313AD007530AC00FA
:10174200AC0BA12BAD0BA12BA62B831203130612FC
:101752000613861206148614061586110616213003
:1017620083120313AD007530AC00AC0BB62BAD0B7E
:10177200B62BBB2B83120313061208008B118312A4
:101782000313AC0101300A128A11CA270A128A1500
:1017920083120313AC0102300A128A11CA270A12F9
:1017A2008A1583120313AC0103300A128A11CA2765
:1017B2000A128A1583120313AC0104300A128A1129
:1017C200CA270A128A1583120313AC0105300A12C2
:1017D2008A11CA270A128A1583120313AC01063032
:1017E2000A128A11CA270A128A1583120313AC013C
:1017F20007300A128A11CA270A128A1583120313A2
:10180200AC0108300A128A11CA270A128A15083056
:1018120083120313B0003008AC0008300A168A1194
:1018220046210A128A15083083120313B0003008C9
:10183200AC0001300A168A1167210A128A15E72DB7
:101842007E3083120313B0003008AC0005300A1654
:101852008A1146210A128A15CE2F463083120313AB
:10186200B0003008AC0006300A168A1146210A126E
:101872008A154A3083120313B0003008AC000530D9
:101882000A168A1146210A128A155230831203134C
:10189200B0003008AC0004300A168A1146210A1240
:1018A2008A15623083120313B0003008AC00033093
:1018B2000A168A1146210A128A15CE2F2A3083125D
:1018C2000313B0003008AC0006300A168A11462114
:1018D2000A128A152A3083120313B0003008AC00B2
:1018E20005300A168A1146210A128A152A308312F5
:1018F2000313B0003008AC0004300A168A114621E6
:101902000A128A157E3083120313B0003008AC002D
:1019120003300A168A1146210A128A15CE2F783010
:1019220083120313B0003008AC0006300A168A1185
:1019320046210A128A15083083120313B0003008B8
:10194200AC0005300A168A1146210A128A1508309F
:1019520083120313B0003008AC0004300A168A1157
:1019620046210A128A157E3083120313B000300812
:10197200AC0003300A168A1146210A128A15CE2FAC
:10198200723083120313B0003008AC0006300A161E
:101992008A1146210A128A15523083120313B000AB
:1019A2003008AC0005300A168A1146210A128A153F
:1019B200523083120313B0003008AC0004300A1610
:1019C2008A1146210A128A155E3083120313B0006F
:1019D2003008AC0003300A168A1146210A128A1511
:1019E200CE2F7E3083120313B0003008AC000630D5
:1019F2000A168A1146210A128A15523083120313DB
:101A0200B0003008AC0005300A168A1146210A12CD
:101A12008A15523083120313B0003008AC00043030
:101A22000A168A1146210A128A155E30831203139E
:101A3200B0003008AC0003300A168A1146210A129F
:101A42008A15CE2F403083120313B0003008AC0049
:101A520006300A168A1146210A128A15403083126C
:101A62000313B0003008AC0005300A168A11462173
:101A72000A128A15403083120313B0003008AC00FA
:101A820004300A168A1146210A128A157E30831200
:101A92000313B0003008AC0003300A168A11462145
:101AA2000A128A15CE2F7E3083120313B00030083B
:101AB200AC0006300A168A1146210A128A155230E3
:101AC20083120313B0003008AC0005300A168A11E5
:101AD20046210A128A15523083120313B0003008CD
:101AE200AC0004300A168A1146210A128A157E3089
:101AF20083120313B0003008AC0003300A168A11B7
:101B020046210A128A15CE2F703083120313B000B9
:101B12003008AC0006300A168A1146210A128A15CC
:101B2200503083120313B0003008AC0005300A169F
:101B32008A1146210A128A15503083120313B0000B
:101B42003008AC0004300A168A1146210A128A159E
:101B52007E3083120313B0003008AC0003300A1643
:101B62008A1146210A128A15CE2F7E308312031360
:101B7200B0003008AC0006300A168A1146210A125B
:101B82008A157E3083120313B0003008AC00043093
:101B92000A168A1146210A128A1542308312031349
:101BA200B0003008AC0003300A168A1146210A122E
:101BB2008A157E3083120313B0003008AC00023065
:101BC2000A168A1146210A128A15CE2F831203138E
:101BD2005608013A0319212C033A03192E2C013A13
:101BE20003195F2C073A0319902C013A0319C12CEF
:101BF200033A0319F22C013A0319232D0F3A031960
:101C0200542D013A0319852D033A0319B62DCE2F0F
:101C1200CE2F7E30B0003008AC0005300A168A1193
:101C220067210A128A15F02F463083120313B0007F
:101C32003008AC0006300A168A1167210A128A158A
:101C42004A3083120313B0003008AC0005300A1684
:101C52008A1167210A128A15523083120313B000C7
:101C62003008AC0004300A168A1167210A128A155C
:101C7200623083120313B0003008AC0003300A163E
:101C82008A1167210A128A15F02F2A308312031350
:101C9200B0003008AC0006300A168A1167210A1219
:101CA2008A152A3083120313B0003008AC000530C5
:101CB2000A168A1167210A128A152A30831203131F
:101CC200B0003008AC0004300A168A1167210A12EB
:101CD2008A157E3083120313B0003008AC00033043
:101CE2000A168A1167210A128A15F02F7830831298
:101CF2000313B0003008AC0006300A168A116721BF
:101D02000A128A15083083120313B0003008AC009F
:101D120005300A168A1167210A128A1508308312C1
:101D22000313B0003008AC0004300A168A11672190
:101D32000A128A157E3083120313B0003008AC00F9
:101D420003300A168A1167210A128A15F02F72309F
:101D520083120313B0003008AC0006300A168A1151
:101D620067210A128A15523083120313B000300819
:101D7200AC0005300A168A1167210A128A15523000
:101D820083120313B0003008AC0004300A168A1123
:101D920067210A128A155E3083120313B0003008DD
:101DA200AC0003300A168A1167210A128A15F02F35
:101DB2007E3083120313B0003008AC0006300A16DE
:101DC2008A1167210A128A15523083120313B00056
:101DD2003008AC0005300A168A1167210A128A15EA
:101DE200523083120313B0003008AC0004300A16DC
:101DF2008A1167210A128A155E3083120313B0001A
:101E02003008AC0003300A168A1167210A128A15BB
:101E1200F02F403083120313B0003008AC000630BC
:101E22000A168A1167210A128A1540308312031397
:101E3200B0003008AC0005300A168A1167210A1278
:101E42008A15403083120313B0003008AC0004300E
:101E52000A168A1167210A128A157E308312031329
:101E6200B0003008AC0003300A168A1167210A124A
:101E72008A15F02F7E3083120313B0003008AC00B5
:101E820006300A168A1167210A128A155230831205
:101E92000313B0003008AC0005300A168A1167211E
:101EA2000A128A15523083120313B0003008AC00B4
:101EB20004300A168A1167210A128A157E308312AB
:101EC2000313B0003008AC0003300A168A116721F0
:101ED2000A128A15F02F703083120313B0003008F3
:101EE200AC0006300A168A1167210A128A15503090
:101EF20083120313B0003008AC0005300A168A11B1
:101F020067210A128A15503083120313B000300879
:101F1200AC0004300A168A1167210A128A157E3033
:101F220083120313B0003008AC0003300A168A1182
:101F320067210A128A15F02F7E3083120313B00034
:101F42003008AC0007300A168A1167210A128A1576
:101F52007E3083120313B0003008AC0005300A163D
:101F62008A1167210A128A15423083120313B000C4
:101F72003008AC0004300A168A1167210A128A1549
:101F82007E3083120313B0003008AC0003300A160F
:101F92008A1167210A128A15F02F8312031355083A
:101FA200013A03190A2E033A0319152E013A0319AD
:101FB200462E073A0319772E013A0319A82E033A3F
:101FC2000319D92E013A03190A2F0F3A03193B2F8D
:101FD200013A03196C2F033A03199D2FF02F273072
:101FE20083120313B2000D30B1002530B000B00BE4
:0E1FF200F82FB10BF82FB20BF82FFF2F0800BD
:102150006434013408340234083401340134640036
:102160008001840A0406031900340406B02883168B
:1021700003178801890183160313071087110716B7
:1021800087128713FF3086008312031386018701AD
:10219000071487178316031388018312031388011A
:1021A00008008312031310083038900090101013A9
:1021B000F3308F00CB308E000C108B170B178B1564
:1021C0000B10831603130C10831203131010C3306B
:1021D0008316031396000800F300831203130710FD
:1021E0007308930083160313141CF22870088312DB
:1021F0000313930083160313141CFA280730F2000C
:102200007D30F100F10B0229F20B02298312031336
:1022100007140800F3008312031387137308930055
:1022200083160313141C10297008831203139300E0
:1022300083160313141C18290730F2007D30F100B7
:10224000F10B2029F20B20298312031387170800B2
:1022500083120313BB003B08B700B801B90137086C
:10226000AC003808AD003908AE008E30BA003A082C
:10227000AF00B0010A168A11F822831203132C084A
:10228000B4002D08B5002E08B60008008312031311
:10229000AF0007102F08930083160313141C4C295A
:1022A000831203132C08930083160313141C542960
:1022B000073083120313AE007C30AD00AD0B5E29F6
:1022C000AE0B5E290000831203130714080083126B
:1022D0000313AF0087132F08930083160313141CF6
:1022E0006D29831203132C08930083160313141C07
:1022F0007529073083120313AE007C30AD00AD0B9F
:102300007F29AE0B7F290000831203138717080073
:10231000F601F11F9229F009F109F00A0319F10AF7
:10232000F601F60AF31F9D29F209F309F20A0319CF
:10233000F30A0130F4007408F606F701F80170089A
:1023400071040319D429F501F50AF11BB3290130F1
:102350000310F00DF10DFF3E031DA8290130F4001C
:102360007408F507A52901300310F70DF80DFF3E9D
:10237000031DB42971087302031DC029700872027D
:10238000031CC9297008F2027108031CF303F3024D
:10239000771401300310F10CF00CFF3E031DCA2925
:1023A0000130F502031DB32976080319DC29F7096A
:1023B000F809F70A0319F80A7808F1007708F0001D
:1023C000080083120313B201AD1FED29AC09AD095A
:1023D000AC0A0319AD0AB201B20AAF1FF829AE095F
:1023E000AF09AE0A0319AF0A0130B0003008B206D7
:1023F000B301B4012C082D0403192F2AB101B10A2D
:10240000AD1B0E2A01300310AC0DAD0DFF3E031DB8
:10241000032A0130B0003008B107002A0130031050
:10242000B30DB40DFF3E031D0F2A2D082F02031D0F
:102430001B2A2C082E02031C242A2C08AE022D086D
:10244000031CAF03AF02331401300310AD0CAC0C0E
:10245000FF3E031D252A0130B102031D0E2A32085A
:102460000319372AB309B409B30A0319B40A3408A3
:10247000AD003308AC000800FA00FB017A088312B3
:102480000313A00001300310A00DFF3E031D432ADB
:102490000230F0000030F1007A08A100A20121080A
:1024A000F2002208F3000A168A1188210A168A11FE
:1024B0007008831203132007A3007A082307A400DF
:1024C0002408FB007B08A0002008F00001300A1659
:1024D0008A11EC200A168A11FC0179088312031371
:1024E000A00001300310A00DFF3E031D722A023030
:1024F000F0000030F1007908A100A2012108F200EB
:102500002208F3000A168A1188210A168A11700817
:10251000831203132007A30079082307A4002408CB
:10252000FC007C08A0002008F00008300A168A1180
:102530000A21080083120313BD00BB013D08B60049
:1025400001300310B60DFF3E031DA12A0230AC007E
:102550000030AD003D08B700B8013708AE003808BC
:10256000AF000A168A11E1210A168A118312031399
:102570002C083607B9003D083907BA003A08BB00F5
:102580003B08B6003608AC0001300A168A11462115
:102590000A168A1183120313BC013508B6000130F4
:1025A0000310B60DFF3E031DD02A0230AC000030F0
:1025B000AD003508B700B8013708AE003808AF00E5
:1025C0000A168A11E1210A168A11831203132C08B4
:1025D0003607B90035083907BA003A08BC003C088C
:1025E000B6003608AC0008300A168A1167210800C8
:1025F000831203132F080319022B2E082D042C0419
:10260000031D152B0030AC000030AD000030AE00D3
:1026100008000130B1003108AF0701300310AE0CE3
:10262000AD0CAC0CFF3E031D0E2BFE302E05031926
:10263000302B092B0130B1003108AF070130AC0756
:10264000003003180130AD07003003180130AE0729
:1026500001300310AE0CAD0CAC0CFF3E031D292B5A
:10266000FF302E0503193F2B1A2B0130AF0201302A
:102670000310AC0DAD0DAE0DFF3E031D382BAD1B91
:10268000452B02302F020318352B2F184D2BFF300E
:10269000AC057F30AD05FF30AE050310AF0C2F0841
:1026A000B100B201B30110300310B10DB20DB30D82
:1026B000FF3E031D542B3108AC043208AD0433082F
:1026C000AE04300803190800AE170800C0308316A6
:1026D000031394003230831203139400AC010C30C6
:1026E0000A128A11CA270A168A1183120313AC012F
:1026F00001300A128A11CA270A168A11831203139B
:10270000AC0102300A128A11CA270A168A118312F2
:102710000313AC0103300A128A11CA270A168A1160
:1027200083120313AC0104300A128A11CA270A1655
:102730008A1183120313AC0105300A128A11CA27C9
:102740000A168A1183120313AC0106300A128A1189
:10275000CA270A168A1183120313AC0107300A1222
:102760008A11CA270A168A1183120313AC01083092
:102770000A128A11CA270A168A1107308312031314
:10278000B0003008AC000B300A128A11CA270A16B2
:102790008A1183120313AC0109300A128A11CA2765
:1027A0000A168A1183120313AC01AC0A0C300A1208
:1027B0008A11CA270A168A1183120313AC010F303B
:1027C0000A128A11CA270A168A110F3083120313BC
:1027D000B0003008AC000A300A128A11CA2708007B
:1027E000083083120313BE003E08DD000830BE002F
:1027F0003E08FD00AC0101300A128A11CA270A16F0
:102800008A1183120313AC0102300A128A11CA27FB
:102810000A168A1183120313AC0103300A128A11BB
:10282000CA270A168A1183120313AC0104300A1254
:102830008A11CA270A168A1183120313AC010530C4
:102840000A128A11CA270A168A1183120313AC01CD
:1028500006300A128A11CA270A168A118312031334
:10286000AC0107300A128A11CA270A168A1183128C
:102870000313AC0108300A128A11CA270A168A11FA
:10288000831203136003031D5D2C5708031D5D2C89
:102890000230BE003E08DE000830BE003E08DF0009
:1028A000DC01DC0A5F08BE003E08AC005E080A16C8
:1028B0008A1146210A168A117B2C831203136008A1
:1028C000031D7B2C5703031D7B2C0E30BE003E08DE
:1028D000DE000830BE003E08DF000230BE003E08C9
:1028E000DC005F08BE003E08AC0007300A168A1103
:1028F00067210A168A117D0883120313BE003E0861
:10290000B5005D080A168A119A2208008312031383
:102910004C0883160313D800831203134D08831643
:102920000313D900831203134E0883160313DA002E
:102930000310590D5A0DDB005B08E1006108031D0F
:10294000AC2C003083120313CF000030CE000030D7
:10295000CD000030CC00080083124C08831603130E
:10296000D800831203134D0883160313D900831272
:1029700003134E0883160313DA0017300310DA0C22
:10298000D90CD80CFF3E031DBE2C5808DB005B0899
:10299000DC0083120313CD17FF30CC05FF30CD05CB
:1029A0000030CE054C0883160313DD008312031399
:1029B0004D0883160313DE00831203134E0883169B
:1029C0000313DF00E0018E30E102E11F092D6108F1
:1029D000803A8F3E0318F72C003083120313CF0088
:1029E0000030CE000030CD000030CC0008000130B7
:1029F000031083160313E00CDF0CDE0CDD0CFF3E2E
:102A0000031DF82C0130D8005808E10703192A2DBE
:102A1000F72C18306102031C252D0030831203139C
:102A2000CF000030CE000030CD000030CC000800D8
:102A3000013083160313D8000310DD0DDE0DDF0D0A
:102A4000E00DD80B1C2D0130E10283160313610841
:102A5000031D182D5C080319382DDD09DE09DF0977
:102A6000E009DD0A0319DE0A0319DF0A0319E00A87
:102A7000600883120313CF00831603135F088312C9
:102A80000313CE00831603135E0883120313CD00D5
:102A9000831603135D0883120313CC00080083120E
:102AA00003133C08C2003D08C3003E08C4000310E5
:102AB000430D440DC5004508C6004608031D672D9B
:102AC0000030BC000030BD000030BE0008003F08F0
:102AD000C2004008C3004108C4000310430D440D68
:102AE000C5004508CB004B08031D7D2D0030BC0000
:102AF0000030BD000030BE0008004B087B3EC20025
:102B00004208C6073C08C2003D08C3003E08C40096
:102B100010300310C40CC30CC20CFF3E031D892DE2
:102B20004208C5004508CB003F08C2004008C3006A
:102B30004108C40010300310C40CC30CC20CFF3E8B
:102B4000031D9B2D4208C5004508CB068030C200FE
:102B50004208CB05BD17C017FF30BF05FF30C005C9
:102B60000030C1050030C7000030C8000030C90087
:102B70000730C2004208CA003C1CCC2D3F08C707E2
:102B8000400803110318400A031DC8074108031138
:102B90000318410A031DC90701300310BE0CBD0C08
:102BA000BC0CFF3E031DCD2D01300310BF0DC00D29
:102BB000C10DFF3E031DD52D0130CA02031DBC2DE2
:102BC0000930C2004208CA003C1CF42D3F08C70768
:102BD000400803110318400A031DC80741080311E8
:102BE0000318410A031DC90701300310BE0CBD0CB8
:102BF000BC0CFF3E031DF52D01300310C90CC80CA1
:102C0000C70CFF3E031DFD2D0130CA02031DE42D3C
:102C10004708AC004808AD004908AE004608C200AD
:102C20004208AF004B08C3004308B0000A168A11DF
:102C3000F822831203132C08BC002D08BD002E08B7
:102C4000BE0008000B1C002F0B10061F512E023077
:102C500083120313A7000430A600B930A500A50B0A
:102C60002F2EA60B2F2EA70B2F2E362E83120313DB
:102C7000061F002F213083120313A6007530A50014
:102C8000A50B402EA60B402E452E40308312031379
:102C90005D060319002F5D08A5002507A60026087C
:102CA0008C2E861F8E2E023083120313A700043051
:102CB000A600B930A500A50B5B2EA60B5B2EA70BBB
:102CC0005B2E622E83120313861F002F2130831286
:102CD0000313A6007530A500A50B6C2EA60B6C2E59
:102CE000712E0230831203135D060319002F023088
:102CF000F0000030F1005D08A500A6012508F200F3
:102D00002608F3000A168A1188210A168A1170080B
:102D100083120313A7002708DD00F62E061CBA2E27
:102D2000023083120313A7000430A600B930A500B7
:102D3000A50B982EA60B982EA70B982E9F2E8312CC
:102D40000313061C002F213083120313A6007530D5
:102D5000A500A50BA92EA60BA92EAE2E40307D06F0
:102D60000319002F7D0883120313A5002507A60071
:102D70002608F52E861C002F023083120313A700AD
:102D80000430A600B930A500A50BC42EA60BC42E96
:102D9000A70BC42ECB2E83120313861C002F2130C9
:102DA00083120313A6007530A500A50BD52EA60B24
:102DB000D52EDA2E02307D060319002F0230F000E6
:102DC0000030F1007D0883120313A500A601250839
:102DD000F2002608F3000A168A1188210A168A11C1
:102DE000700883120313A7002708FD007D08A500C3
:102DF0002508F9005D080A168A113C220A168A1174
:102E0000831203132B08FF002A088A002908840074
:102E1000280E8300FE0E7E0E09008B118312031311
:102E2000AC0101300A128A11CA270A168A118312CC
:102E30000313AC0102300A128A11CA270A168A113A
:102E400083120313AC0103300A128A11CA270A162F
:102E50008A1183120313AC0104300A128A11CA27A3
:102E60000A168A1183120313AC0105300A128A1163
:102E7000CA270A168A1183120313AC0106300A12FC
:102E80008A11CA270A168A1183120313AC0107306C
:102E90000A128A11CA270A168A1183120313AC0177
:102EA00008300A128A11CA270A168A117E30831244
:102EB0000313B0003008AC0007300A168A116721EE
:102EC0000A168A11423083120313B0003008AC0096
:102ED00006300A168A1167210A168A114A308312AF
:102EE0000313B0003008AC0005300A168A116721C0
:102EF0000A168A114E3083120313B0003008AC005A
:102F000004300A168A1167210A168A1183120313E4
:102F1000AC0103300A168A1167210A168A117E3025
:102F200083120313B0003008AC0002300A168A1175
:102F300067210A168A11423083120313B000300849
:102F4000AC0001300A168A1167210A168A11423034
:102F500083120313B0003008AC0008300A168A113F
:102F600046210A168A117E3083120313B0003008FE
:102F7000AC0007300A168A1146210A168A117E30E3
:102F800083120313B0003008AC0005300A168A1112
:102F900046210A168A11023083120313B00030084A
:102FA000AC0004300A168A1146210A168A11023032
:102FB00083120313B0003008AC0003300A168A11E4
:102FC00046210A168A11023083120313B00030081A
:102FD000AC0002300A168A1146210A168A112730DF
:102FE00083120313B2000D30B1002530B000B00BD6
:102FF000F72FB10BF72FB20BF72FFE2F8B11080015
:04400E00F2EFFFFFCF
:00000001FF
